{
  "contracts/Packing.sol": {
    "PackingVariable": {
      "abi": [
        {
          "inputs": [
            {
              "internalType": "bytes32",
              "name": "key",
              "type": "bytes32"
            }
          ],
          "name": "decodeWithKey",
          "outputs": [
            {
              "internalType": "uint256",
              "name": "value1",
              "type": "uint256"
            },
            {
              "internalType": "uint8",
              "name": "value2",
              "type": "uint8"
            },
            {
              "internalType": "address",
              "name": "value3",
              "type": "address"
            },
            {
              "internalType": "uint32",
              "name": "value4",
              "type": "uint32"
            }
          ],
          "stateMutability": "view",
          "type": "function"
        },
        {
          "inputs": [
            {
              "internalType": "bytes32",
              "name": "key",
              "type": "bytes32"
            },
            {
              "internalType": "uint256",
              "name": "value1",
              "type": "uint256"
            },
            {
              "internalType": "uint8",
              "name": "value2",
              "type": "uint8"
            },
            {
              "internalType": "address",
              "name": "value3",
              "type": "address"
            },
            {
              "internalType": "uint32",
              "name": "value4",
              "type": "uint32"
            }
          ],
          "name": "encodeWithKey",
          "outputs": [],
          "stateMutability": "nonpayable",
          "type": "function"
        }
      ],
      "evm": {
        "bytecode": {
          "linkReferences": {},
          "object": "608060405234801561001057600080fd5b50610362806100206000396000f3fe608060405234801561001057600080fd5b50600436106100365760003560e01c80638535e6911461003b578063ab04616e14610057575b600080fd5b6100556004803603810190610050919061015e565b61008a565b005b610071600480360381019061006c9190610135565b6100a6565b6040516100819493929190610211565b60405180910390f35b8385558260208601558160218601558060358601555050505050565b600080600080845493506020850154925060218501549150603585015490509193509193565b6000813590506100db816102b9565b92915050565b6000813590506100f0816102d0565b92915050565b600081359050610105816102e7565b92915050565b60008135905061011a816102fe565b92915050565b60008135905061012f81610315565b92915050565b60006020828403121561014757600080fd5b6000610155848285016100e1565b91505092915050565b600080600080600060a0868803121561017657600080fd5b6000610184888289016100e1565b9550506020610195888289016100f6565b94505060406101a688828901610120565b93505060606101b7888289016100cc565b92505060806101c88882890161010b565b9150509295509295909350565b6101de81610256565b82525050565b6101ed81610292565b82525050565b6101fc8161029c565b82525050565b61020b816102ac565b82525050565b600060808201905061022660008301876101e4565b6102336020830186610202565b61024060408301856101d5565b61024d60608301846101f3565b95945050505050565b600061026182610272565b9050919050565b6000819050919050565b600073ffffffffffffffffffffffffffffffffffffffff82169050919050565b6000819050919050565b600063ffffffff82169050919050565b600060ff82169050919050565b6102c281610256565b81146102cd57600080fd5b50565b6102d981610268565b81146102e457600080fd5b50565b6102f081610292565b81146102fb57600080fd5b50565b6103078161029c565b811461031257600080fd5b50565b61031e816102ac565b811461032957600080fd5b5056fea2646970667358221220ff0733609da9578b749fc0ac77ddfee11667997bc153f365ce937da040a0a99f64736f6c63430008000033",
          "opcodes": "PUSH1 0x80 PUSH1 0x40 MSTORE CALLVALUE DUP1 ISZERO PUSH2 0x10 JUMPI PUSH1 0x0 DUP1 REVERT JUMPDEST POP PUSH2 0x362 DUP1 PUSH2 0x20 PUSH1 0x0 CODECOPY PUSH1 0x0 RETURN INVALID PUSH1 0x80 PUSH1 0x40 MSTORE CALLVALUE DUP1 ISZERO PUSH2 0x10 JUMPI PUSH1 0x0 DUP1 REVERT JUMPDEST POP PUSH1 0x4 CALLDATASIZE LT PUSH2 0x36 JUMPI PUSH1 0x0 CALLDATALOAD PUSH1 0xE0 SHR DUP1 PUSH4 0x8535E691 EQ PUSH2 0x3B JUMPI DUP1 PUSH4 0xAB04616E EQ PUSH2 0x57 JUMPI JUMPDEST PUSH1 0x0 DUP1 REVERT JUMPDEST PUSH2 0x55 PUSH1 0x4 DUP1 CALLDATASIZE SUB DUP2 ADD SWAP1 PUSH2 0x50 SWAP2 SWAP1 PUSH2 0x15E JUMP JUMPDEST PUSH2 0x8A JUMP JUMPDEST STOP JUMPDEST PUSH2 0x71 PUSH1 0x4 DUP1 CALLDATASIZE SUB DUP2 ADD SWAP1 PUSH2 0x6C SWAP2 SWAP1 PUSH2 0x135 JUMP JUMPDEST PUSH2 0xA6 JUMP JUMPDEST PUSH1 0x40 MLOAD PUSH2 0x81 SWAP5 SWAP4 SWAP3 SWAP2 SWAP1 PUSH2 0x211 JUMP JUMPDEST PUSH1 0x40 MLOAD DUP1 SWAP2 SUB SWAP1 RETURN JUMPDEST DUP4 DUP6 SSTORE DUP3 PUSH1 0x20 DUP7 ADD SSTORE DUP2 PUSH1 0x21 DUP7 ADD SSTORE DUP1 PUSH1 0x35 DUP7 ADD SSTORE POP POP POP POP POP JUMP JUMPDEST PUSH1 0x0 DUP1 PUSH1 0x0 DUP1 DUP5 SLOAD SWAP4 POP PUSH1 0x20 DUP6 ADD SLOAD SWAP3 POP PUSH1 0x21 DUP6 ADD SLOAD SWAP2 POP PUSH1 0x35 DUP6 ADD SLOAD SWAP1 POP SWAP2 SWAP4 POP SWAP2 SWAP4 JUMP JUMPDEST PUSH1 0x0 DUP2 CALLDATALOAD SWAP1 POP PUSH2 0xDB DUP2 PUSH2 0x2B9 JUMP JUMPDEST SWAP3 SWAP2 POP POP JUMP JUMPDEST PUSH1 0x0 DUP2 CALLDATALOAD SWAP1 POP PUSH2 0xF0 DUP2 PUSH2 0x2D0 JUMP JUMPDEST SWAP3 SWAP2 POP POP JUMP JUMPDEST PUSH1 0x0 DUP2 CALLDATALOAD SWAP1 POP PUSH2 0x105 DUP2 PUSH2 0x2E7 JUMP JUMPDEST SWAP3 SWAP2 POP POP JUMP JUMPDEST PUSH1 0x0 DUP2 CALLDATALOAD SWAP1 POP PUSH2 0x11A DUP2 PUSH2 0x2FE JUMP JUMPDEST SWAP3 SWAP2 POP POP JUMP JUMPDEST PUSH1 0x0 DUP2 CALLDATALOAD SWAP1 POP PUSH2 0x12F DUP2 PUSH2 0x315 JUMP JUMPDEST SWAP3 SWAP2 POP POP JUMP JUMPDEST PUSH1 0x0 PUSH1 0x20 DUP3 DUP5 SUB SLT ISZERO PUSH2 0x147 JUMPI PUSH1 0x0 DUP1 REVERT JUMPDEST PUSH1 0x0 PUSH2 0x155 DUP5 DUP3 DUP6 ADD PUSH2 0xE1 JUMP JUMPDEST SWAP2 POP POP SWAP3 SWAP2 POP POP JUMP JUMPDEST PUSH1 0x0 DUP1 PUSH1 0x0 DUP1 PUSH1 0x0 PUSH1 0xA0 DUP7 DUP9 SUB SLT ISZERO PUSH2 0x176 JUMPI PUSH1 0x0 DUP1 REVERT JUMPDEST PUSH1 0x0 PUSH2 0x184 DUP9 DUP3 DUP10 ADD PUSH2 0xE1 JUMP JUMPDEST SWAP6 POP POP PUSH1 0x20 PUSH2 0x195 DUP9 DUP3 DUP10 ADD PUSH2 0xF6 JUMP JUMPDEST SWAP5 POP POP PUSH1 0x40 PUSH2 0x1A6 DUP9 DUP3 DUP10 ADD PUSH2 0x120 JUMP JUMPDEST SWAP4 POP POP PUSH1 0x60 PUSH2 0x1B7 DUP9 DUP3 DUP10 ADD PUSH2 0xCC JUMP JUMPDEST SWAP3 POP POP PUSH1 0x80 PUSH2 0x1C8 DUP9 DUP3 DUP10 ADD PUSH2 0x10B JUMP JUMPDEST SWAP2 POP POP SWAP3 SWAP6 POP SWAP3 SWAP6 SWAP1 SWAP4 POP JUMP JUMPDEST PUSH2 0x1DE DUP2 PUSH2 0x256 JUMP JUMPDEST DUP3 MSTORE POP POP JUMP JUMPDEST PUSH2 0x1ED DUP2 PUSH2 0x292 JUMP JUMPDEST DUP3 MSTORE POP POP JUMP JUMPDEST PUSH2 0x1FC DUP2 PUSH2 0x29C JUMP JUMPDEST DUP3 MSTORE POP POP JUMP JUMPDEST PUSH2 0x20B DUP2 PUSH2 0x2AC JUMP JUMPDEST DUP3 MSTORE POP POP JUMP JUMPDEST PUSH1 0x0 PUSH1 0x80 DUP3 ADD SWAP1 POP PUSH2 0x226 PUSH1 0x0 DUP4 ADD DUP8 PUSH2 0x1E4 JUMP JUMPDEST PUSH2 0x233 PUSH1 0x20 DUP4 ADD DUP7 PUSH2 0x202 JUMP JUMPDEST PUSH2 0x240 PUSH1 0x40 DUP4 ADD DUP6 PUSH2 0x1D5 JUMP JUMPDEST PUSH2 0x24D PUSH1 0x60 DUP4 ADD DUP5 PUSH2 0x1F3 JUMP JUMPDEST SWAP6 SWAP5 POP POP POP POP POP JUMP JUMPDEST PUSH1 0x0 PUSH2 0x261 DUP3 PUSH2 0x272 JUMP JUMPDEST SWAP1 POP SWAP2 SWAP1 POP JUMP JUMPDEST PUSH1 0x0 DUP2 SWAP1 POP SWAP2 SWAP1 POP JUMP JUMPDEST PUSH1 0x0 PUSH20 0xFFFFFFFFFFFFFFFFFFFFFFFFFFFFFFFFFFFFFFFF DUP3 AND SWAP1 POP SWAP2 SWAP1 POP JUMP JUMPDEST PUSH1 0x0 DUP2 SWAP1 POP SWAP2 SWAP1 POP JUMP JUMPDEST PUSH1 0x0 PUSH4 0xFFFFFFFF DUP3 AND SWAP1 POP SWAP2 SWAP1 POP JUMP JUMPDEST PUSH1 0x0 PUSH1 0xFF DUP3 AND SWAP1 POP SWAP2 SWAP1 POP JUMP JUMPDEST PUSH2 0x2C2 DUP2 PUSH2 0x256 JUMP JUMPDEST DUP2 EQ PUSH2 0x2CD JUMPI PUSH1 0x0 DUP1 REVERT JUMPDEST POP JUMP JUMPDEST PUSH2 0x2D9 DUP2 PUSH2 0x268 JUMP JUMPDEST DUP2 EQ PUSH2 0x2E4 JUMPI PUSH1 0x0 DUP1 REVERT JUMPDEST POP JUMP JUMPDEST PUSH2 0x2F0 DUP2 PUSH2 0x292 JUMP JUMPDEST DUP2 EQ PUSH2 0x2FB JUMPI PUSH1 0x0 DUP1 REVERT JUMPDEST POP JUMP JUMPDEST PUSH2 0x307 DUP2 PUSH2 0x29C JUMP JUMPDEST DUP2 EQ PUSH2 0x312 JUMPI PUSH1 0x0 DUP1 REVERT JUMPDEST POP JUMP JUMPDEST PUSH2 0x31E DUP2 PUSH2 0x2AC JUMP JUMPDEST DUP2 EQ PUSH2 0x329 JUMPI PUSH1 0x0 DUP1 REVERT JUMPDEST POP JUMP INVALID LOG2 PUSH5 0x6970667358 0x22 SLT KECCAK256 SELFDESTRUCT SMOD CALLER PUSH1 0x9D 0xA9 JUMPI DUP12 PUSH21 0x9FC0AC77DDFEE11667997BC153F365CE937DA040A0 0xA9 SWAP16 PUSH5 0x736F6C6343 STOP ADDMOD STOP STOP CALLER "
        },
        "methodIdentifiers": {
          "decodeWithKey(bytes32)": "ab04616e",
          "encodeWithKey(bytes32,uint256,uint8,address,uint32)": "8535e691"
        }
      }
    }
  }
}