{
  "_format": "hh-sol-artifact-1",
  "contractName": "PackingVariable",
  "sourceName": "contracts/Packing.sol",
  "abi": [
    {
      "inputs": [
        {
          "internalType": "bytes32",
          "name": "key",
          "type": "bytes32"
        }
      ],
      "name": "decodeWithKey",
      "outputs": [
        {
          "internalType": "uint256",
          "name": "value1",
          "type": "uint256"
        },
        {
          "internalType": "uint8",
          "name": "value2",
          "type": "uint8"
        },
        {
          "internalType": "address",
          "name": "value3",
          "type": "address"
        },
        {
          "internalType": "uint32",
          "name": "value4",
          "type": "uint32"
        }
      ],
      "stateMutability": "view",
      "type": "function"
    },
    {
      "inputs": [
        {
          "internalType": "bytes32",
          "name": "key",
          "type": "bytes32"
        },
        {
          "internalType": "uint256",
          "name": "value1",
          "type": "uint256"
        },
        {
          "internalType": "uint8",
          "name": "value2",
          "type": "uint8"
        },
        {
          "internalType": "address",
          "name": "value3",
          "type": "address"
        },
        {
          "internalType": "uint32",
          "name": "value4",
          "type": "uint32"
        }
      ],
      "name": "encodeWithKey",
      "outputs": [],
      "stateMutability": "nonpayable",
      "type": "function"
    }
  ],
  "bytecode": "0x608060405234801561001057600080fd5b50610362806100206000396000f3fe608060405234801561001057600080fd5b50600436106100365760003560e01c80638535e6911461003b578063ab04616e14610057575b600080fd5b6100556004803603810190610050919061015e565b61008a565b005b610071600480360381019061006c9190610135565b6100a6565b6040516100819493929190610211565b60405180910390f35b8385558260208601558160218601558060358601555050505050565b600080600080845493506020850154925060218501549150603585015490509193509193565b6000813590506100db816102b9565b92915050565b6000813590506100f0816102d0565b92915050565b600081359050610105816102e7565b92915050565b60008135905061011a816102fe565b92915050565b60008135905061012f81610315565b92915050565b60006020828403121561014757600080fd5b6000610155848285016100e1565b91505092915050565b600080600080600060a0868803121561017657600080fd5b6000610184888289016100e1565b9550506020610195888289016100f6565b94505060406101a688828901610120565b93505060606101b7888289016100cc565b92505060806101c88882890161010b565b9150509295509295909350565b6101de81610256565b82525050565b6101ed81610292565b82525050565b6101fc8161029c565b82525050565b61020b816102ac565b82525050565b600060808201905061022660008301876101e4565b6102336020830186610202565b61024060408301856101d5565b61024d60608301846101f3565b95945050505050565b600061026182610272565b9050919050565b6000819050919050565b600073ffffffffffffffffffffffffffffffffffffffff82169050919050565b6000819050919050565b600063ffffffff82169050919050565b600060ff82169050919050565b6102c281610256565b81146102cd57600080fd5b50565b6102d981610268565b81146102e457600080fd5b50565b6102f081610292565b81146102fb57600080fd5b50565b6103078161029c565b811461031257600080fd5b50565b61031e816102ac565b811461032957600080fd5b5056fea2646970667358221220ff0733609da9578b749fc0ac77ddfee11667997bc153f365ce937da040a0a99f64736f6c63430008000033",
  "linkReferences": {},
  "deployedLinkReferences": {}
}